:100000000C942A000C943F000C943F000C943F0089
:100010000C943F000C943F000C943F000C943F0064
:100020000C943F000C943F000C943F000C943F0054
:100030000C943F000C943F000C943F000C943F0044
:100040000C943F000C943F000C943F000C943F0034
:100050000C943F0011241FBECFE5D8E0DEBFCDBF1A
:1000600010E0A0E6B0E0E8E9F0E002C005900D92F3
:10007000A236B107D9F70E9441000C944A000C94B3
:1000800000008091600090916100892BD1F780E0A1
:0800900090E00895F894FFCF01
:02009800010065
:00000001FF
