S00E00005441534B5F312E7372656353
S11300000C942A000C9447000C9447000C9447006D
S11300100C9447000C9447000C9447000C94470040
S11300200C9447000C9447000C9447000C94470030
S11300300C9447000C9447000C9447000C94470020
S11300400C94F2000C9447000C9447000C94470065
S11300500C94470011241FBECFE5D8E0DEBFCDBF0E
S113006010E0A0E6B0E0E4E6F2E002C005900D92F4
S1130070A636B107D9F720E0A6E6B0E001C01D928C
S1130080A037B207E1F70E945E000C9430010C9493
S1130090000081E090E090936B0080936A000895E3
S11300A082E090E090936B0080936A00089583E06F
S11300B090E090936B0080936A000895CF93DF9350
S11300C0CDB7DEB766970FB6F894DEBF0FBECDBFCF
S11300D08FB780688FBFCE01019626E0FC01119294
S11300E02A95E9F71F8221E0288722E0298726E064
S11300F0E0E6F0E0DE011A9601900D922A95E1F710
S113010023E0288B9A8B898B06969C8B8B8B03968A
S11301109E8B8D8B0E949200CE0140960E94A3007C
S113012086B1FECF87B18F73806487B987B180624F
S113013097B1892B87B986B1887F816086B986B1EA
S1130140806886B9089520916900213009F446C079
S113015022E02093690090936F0080936E00DC018D
S11301603C91209166002317A8F51396ED91FC911C
S1130170149730E0E20FF31F4081483088F5119660
S11301804D915C911297220F331F420F531F5093CE
S113019068004093670015968D919C911697DC0139
S11301A0A20FB31F8D919C9190936D0080936C006E
S11301B087B1807E9081892B87B986B1886086B9A2
S11301C086B1806486B9809166008F5F80936600F3
S11301D080E008951092690082E0089581E0089516
S11301E081E008951F920F920FB60F9211242F935E
S11301F03F934F935F936F937F938F939F93AF93AB
S1130200BF93EF93FF93E0916700F091680085B18D
S11302101082818324B1E0916700F09168008081AD
S11302209181822B91838083E0916C00F0916D0029
S1130230099580916E0090916F000E94A300FF9138
S1130240EF91BF91AF919F918F917F916F915F914A
S11302504F913F912F910F900FBE0F901F901895C3
S1070260F894FFCF3C
S1090264490050005700A0
S9030000FC
